:020000040800F2
:10800000203B0020ED500108794B01087D4B010811
:10801000994B01089B4B01089D4B01080000000093
:108020000000000000000000000000009F4B01085D
:10803000A14B010800000000A34B0108A54B01085B
:10804000B9510108BD510108C1510108C5510108CC
:10805000C9510108CD510108D1510108D55101087C
:10806000D9510108DD510108E1510108E55101082C
:10807000E9510108ED510108F1510108F5510108DC
:10808000F9510108FD51010801520108055201088A
:10809000114C0108095201080D520108A94B0108B1
:1080A0001152010815520108195201081D52010808
:1080B000C54B010821520108E94B0108255201086E
:1080C000295201082D520108315201083552010888
:1080D000395201083D520108415201084552010838
:1080E000495201084D5201085152010862F30F2212
:1080F00062F31F4200B500BF130096469446103944
:1081000028BFA0E80C50FAD85FEA417C28BF0CC019
:1081100048BF40F8042BC90728BF20F8022B48BFEE
:1081200000F8012B00BD30B4002513E050F8042BFB
:10813000D30744BFA9F101039A18091F042942F883
:10814000045BFAD213468C0744BF15809B1CC907F9
:1081500048BF1D7050F8041B0029E7D130BC7047A0
:1081600010B504462034A1F15002D2B200213C20C7
:1081700001F086F82246D2B2120942F01002002124
:108180003C2001F07DF804F00F04224600213C2041
:10819000BDE8104001F074B82DE9F04105460C46E9
:1081A00016461B19DBB22046E408891000EB51711A
:1081B000C910B0EBC10000D0641C1846801003EB5E
:1081C00050784FEAE808069FB3EBC80302D15FFA84
:1081D00088F812E008F101085FFA88F80DE02146FE
:1081E000C9B22846FFF7BCFF40233C22314638463F
:1081F00001F060F830460744641C2046C0B2404598
:10820000EDDB3846BDE8F08110B5040014D4DFF88A
:10821000FC02B0F90010224691420DD00480812268
:1082200000213C2001F02CF82246D2B200213C2053
:10823000BDE8104001F024B810BD3EB5069C0325F2
:108240000195009409B200B202F0B2F837BD10B542
:10825000A2B00022802102A8FFF748FF00240BE013
:108260000020019002A8009008238022E100C9B2FA
:108270000020FFF791FF641C2046C0B20228EFDB0C
:1082800022B010BD000000002DE9F841B3B0002479
:108290002246802103A8FFF729FF22460DF108019D
:1082A000A0A004F0AFFF050000F0A88028784228C5
:1082B00040F0A48068784D2840F0A08005F1360099
:1082C0000178FF2906D14178FF2903D18078FF2862
:1082D00000D1012400227F2103A8FFF707FF01231B
:1082E0000F2203E05B00DBB2521ED2B2082A2DDB64
:1082F0000026374601E00C467F1C3846C0B20C28E9
:10830000F0DA02EB420100EB8100284490F83EC015
:108310004FF0800E4FF0000821464046C0B20828BA
:10832000E9DA704600EA0C00002902D1002806D0E4
:1083300001E0002803D103A8845D1C438455761C0A
:10834000F6B24FEA5E0E08F10108E6E7642007F096
:10835000A6FBFFF77CFF0020019003A800900823F4
:10836000602200210846FFF717FF00227F2103A8A3
:10837000FFF7BCFE0123002202E05B00DBB2521CCF
:10838000082A2DDA0026374601E00C467F1C3846C5
:10839000C0B20C28F1DAA2EB820100EB8100284484
:1083A00090F892C04FF0800E4FF0000821464046F2
:1083B000C0B20828E9DA704600EA0C00002902D1B0
:1083C000002806D001E0002803D103A8845D1C43E7
:1083D0008455761CF6B24FEA5E0E08F10108E6E716
:1083E0000020019003A80090082360221946002075
:1083F000FFF7D2FE4FF4967007F051FB34B0BDE8A2
:10840000F0810000FEB504460D4616461F4614E0F6
:10841000303802E02D28FBD10C20394601913C492F
:10842000C0B201EB4010009010231A4629462046A6
:1084300000B201F0BDFF0E34761C3078002803D066
:108440002028E7D10A20E8E7F7BDFEB504460D462F
:1084500016461F4613E016F8010B203839460191E5
:108460002C49C0B200EB400201EB4200009008230F
:1084700006222946204600B201F09AFFA41D30785A
:108480000028E8D1F7BDFEB504460D4616461F4646
:1084900011E016F8010B2038394601911E49C0B28F
:1084A00001EB00100090102308222946204600B25C
:1084B00001F07EFF083430780028EAD1F7BD7CB5A2
:1084C000069D079C0026002D0DD0022D16D11646C4
:1084D0001D466E437443114D2646B61004EB567488
:1084E00015EBE4060AE016461D466E4374430C4D38
:1084F0002646B61004EB567415EBE4069DF82040B2
:108500000194009601F054FF73BD00000033002079
:10851000F4980008B0440108A0360108FC4D010899
:10852000CC5001084C4F474F494E2020424D50003F
:1085300000280AD0B0FA80F18840D1F19D01C90528
:10854000020672F1004241EB1020704710B5FF2384
:1085500013EAD0541DBF13EAD1529C429A4239E02B
:10856000A41ADA0780EA0103134042EA012142EA31
:108570000020421A3CBF641E01EB4202090AB2FB12
:10858000F1FE01FB1E221202B2FBF1F001FB1022F0
:108590006EF30F201202B2FBF1FE4EEA00207F3490
:1085A00006DDFE2C24DA53EA500050EBC45010BD17
:1085B000D4F1020401FB1E2240F08071192C1DDC55
:1085C00021FA04F0C4F12004A140114371F10042EA
:1085D000584110BD9C421ABF03EAD1529A420FE0A3
:1085E00080EA010E0EF00043400004D0490016D18D
:1085F00043F0FF4010BD490008BFD343180010BD31
:108600009C4205D1D21AF7D001F00041484010BD7C
:108610004A0212BF0846484000F0004010BD4AB967
:108620000902B1FA81F2914044B1A418C00140F0AE
:1086300000409EE7C90141F0004152420002B0FAF9
:1086400080F4A040141B94E7C0F3C75181B1FF2907
:1086500006D0C110400721F0E04101F160517047A0
:1086600041020CBF40F4E0016FF000410020704770
:1086700000F0004100020AD0B0FA80FC00FA0CF0D1
:1086800001F16051A1EB0C5101EBD0214005704785
:108690000CB430B583B00A4606A902910446002501
:1086A0000194009502AB01A9084878441E3007F0F8
:1086B000B3FD019A157000284EBF04460198041BB3
:1086C000204603B030BC5DF80CFB00BF6F03000018
:1086D0007CB505F0BAFE04460021684603F070FB45
:1086E000BDF800500B21684603F06AFB009E284647
:1086F000FFF71EFF6649FFF729FF0546654831462B
:1087000000F0EAFA06462846294600F0E5FA054652
:10871000204600F0CFFA6049FFF718FF01462846CF
:10872000FFF714FF01463046FFF710FFFFF78CFFFD
:108730004FF06632594B00F0DFFD00F083F901463F
:1087400089B2612900DB612080B276BD3EB5044666
:108750000C21684603F034FB9DF80050002C03D038
:10876000FFF7B6FF4E490880012D02D14C48008822
:108770003EBD05203EBD80B5012007F056FAFFF74B
:10878000D7FEFFF761FF4FF06632464B00F0B4FDB5
:108790000022454B00F0B0FD0022444B00F0ACFD40
:1087A0000022434B00F0A8FD00F04CF980B202BD5E
:1087B0003EB542F2107188423DDA0F21684603F05F
:1087C000FFFA9DF80000012825D13A4D28780328AA
:1087D00011DB002028700246374B0D2003F088FC87
:1087E000022003F00AFE002213460C2003B0BDE86D
:1087F000304003F07DBC06F0BFFE044680B206F0B8
:10880000D0FE014689B2204680B206F0EAFE287802
:10881000401C287037BD0022274B0D2003F068FC58
:10882000022003F0EAFD002213460C2003B0BDE84D
:10883000304003F05DBC37BD2048406870477CB5D0
:108840000B21684603F0BCFA009D1C4E7488002C76
:1088500010D03088FFF76CFE0146284600F03CFA45
:1088600005462046FFF764FE01462846FFF76EFEE8
:10887000706001E00020706000203080708073BD67
:108880000E490A88801808804888963048807047CA
:1088900000007A440000C842000020416666EE3FB6
:1088A0000233002066660A4000805B4000005940A9
:1088B0000000303F153300200000F03FAC320020B4
:1088C00070B44FF0004591EA030F40F1EF856B4023
:1088D000841A71EB030604D26E40001BB1411219D9
:1088E00073414FF4001C1CEB410F34BF7CEB43067B
:1088F00083E00C0DA4EB1356362E00F37C80012E82
:1089000045EAC32341DC43EA525312BFD20292022A
:108910005B08240545EAC12141EA5051D2EBC02051
:10892000994125D407D1B0FA80F610FA06F162D049
:108930000020203608E0B1FA81F6B140C6F12002ED
:1089400020FA02F21143B0404FEAF474B4EB4654FB
:1089500034F001064FEA74040AD8D6F50016760DF5
:1089600004F00044F04061FA06F25040F140484003
:10897000C00A40EA415021F0004128BF5FEA50059B
:1089800050F1000044EBD12135E0DB0A45EAC1217A
:10899000C90AB6F120050EDD42EA0242120CC5F109
:1089A000200603FA06F6EB4042EA06056D429841BE
:1089B00061F100010DE062FA06F5F240554063FAFC
:1089C00006FC82EA0C02F3405A406D42904161EB92
:1089D000030111F4801F05D1641E620502D06D00F1
:1089E0004041494121F48011430875F1004350F1A1
:1089F000000041EB045170BC70471CEB410F15D2D5
:108A000023F0004352EA43060BD04FEA4C0CBCEB78
:108A1000410F04D80C0D661E342EB7DDEBE7801A2B
:108A2000994150EA410608BF0021E4E708BF1CEB6A
:108A3000430F28BF6FF00001DDE70268531C03609D
:108A400011707047C1F30A5340F2FE329B1A14DDD5
:108A5000D3F120034FEAE17208DDC90241EA505127
:108A600041F00040D84080185040704703F2E13098
:108A700010B1D24382F000407047002070472E00B2
:108A8000C0F3C7517E390EDDC217D1F1200106DDDA
:108A9000000240F00040C840104450407047D043AE
:108AA00080F000407047002070470000F8B5044691
:108AB00015461E46C9B20E2905DB002090E80E00BF
:108AC00084E80E00F1BD714801EB410210EB820712
:108AD00006F0E2FF28187860002078707E80012080
:108AE0003870BD6097E8070084E80700F1BD0E28E4
:108AF00001DB012070470021644A00EB400398002D
:108B000011540846704710B50E2801DB012010BD36
:108B10005E4900EB400211EB82046088002806D019
:108B200006F0BAFFA16808186060012020700020DC
:108B300010BD10B504460E2C01DB012010BD06F05F
:108B4000ABFF524904EB440201EB82029168081822
:108B500050600020507010BD1FB54FF6FF742346C3
:108B60001F2200216846FFF7A1FF234640F2EB32A7
:108B700003216846FFF79AFF234640F22F12042193
:108B80006846FFF793FF2346492201216846FFF715
:108B90008DFF2346082206216846FFF787FF2346FC
:108BA00040F2292207216846FFF780FF234640F262
:108BB000632208216846FFF779FF234667220221D6
:108BC0006846FFF773FF234640F283120B21684685
:108BD000FFF76CFF234640F629420D216846FFF758
:108BE00065FF012340F2DC520A216846FFF75EFF71
:108BF0001FBD10B4C9B20E2905DB002191E81C008D
:108C000080E81C0008E0214A01EB410302EB8301EC
:108C100091E81C0080E81C0010BC70470E2806DAA2
:108C200000211A4A00EB400302EB830041707047B9
:108C300038B5002425E006F02FFFA9680818686001
:108C40001EE0124804EB440110EB8105287801284E
:108C500016D106F021FF6968814211D201206870A7
:108C60006888002805D04FF6FF71884201D0401E69
:108C7000688068880028DED1002028706860A860BD
:108C8000641C0E2CDDDB31BD0000000050300020E4
:108C9000C11768B14840401AB0FA80F29040D21C27
:108CA000C907C2F5846241EA025202EBD0214005B5
:108CB00070470000C2175040801AB0FA80F10AD005
:108CC0008840D1F19D01D20742EAC151020672F1FA
:108CD000004241EB10207047FF2212EAD05C1DBF1A
:108CE00012EAD153944593422BE09C44D30780EA87
:108CF00001021A4043EA002043EA0121A1FB0030AF
:108D0000C04238BF40007CF17F010BDBFE294ADA0C
:108D10005B0842EAC15153EA006373F1004C51EB26
:108D200010207047D1F1080CDCF120012FDB5B082B
:108D300010FA01F10B4320FA0CF073F1004150419D
:108D4000704794451CBF02EAD153934280EA010266
:108D500002F000421DD0400019D0490017D05BB985
:108D6000634514D00902B1FA81F39940BCEB030CBE
:108D7000C00140F00040C1E70002B0FA80FC10FAE8
:108D80000CF0B3EB0C0CC90141F00041B6E7100048
:108D9000704740000AD0490008D010F1807F94BF8E
:108DA00011F1807F02E042F0FF407047D0437047EE
:108DB00005281BD8DFE800F003070B0F131700206E
:108DC0007349088070470A20714908807047142051
:108DD0006F490880704728206D49088070475020EF
:108DE0006B4908807047B42069490880704738B5DE
:108DF00084B004460D460121084600F02AFCADF877
:108E00000450ADF808400020ADF80A00ADF80600A7
:108E100001A94FF0804000F05BFC01214FF0804041
:108E200000F004FD012211464FF0804000F0F4FCF8
:108E300001214FF0804000F0D4FC1C208DF8000090
:108E400001208DF8010002208DF8020001208DF82C
:108E50000300684608F0C9F905B030BD38B584B0E4
:108E600004460D460121042000F0F3FBADF8045048
:108E7000ADF808400020ADF80A00ADF80600454CFA
:108E800001A9204600F024FC0121204600F0CEFC80
:108E900001221146204600F0BFFC0121204600F0CF
:108EA000A0FC1E208DF8000000208DF8010001209C
:108EB0008DF802008DF80300684608F096F905B0B9
:108EC00030BD35480088704700203349088070471E
:108ED00031480188491C0180704738B502F0FCFE1A
:108EE00004462B4D02F02AFF002813D068880A3070
:108EF000688001462A8889B2914202D10021274A1E
:108F0000116080B2B0F5967F04DB002068800120FC
:108F10002249086068680A306860214988422ED377
:108F2000002C05D100221146084608F0ABF91EE0DE
:108F3000012C05D100221146FF2008F0A3F916E00C
:108F4000022C05D10022FF21104608F09BF90EE00B
:108F5000032C05D10022FF21084608F093F906E012
:108F6000042C04D1FF221146084608F08BF900209A
:108F700068600C48017801F0FD01017031BD0A49BB
:108F8000884204D30748017841F00201017031BDE5
:108F9000C4320020000800400A3300209C01214216
:108FA000E9620500800500201109050062B38B0706
:108FB00008D0521E11F8013B00F8013B00F024805C
:108FC0008B07F6D1830740F0208000BF103A07D30B
:108FD00030B4B1E83810103AA0E83810F9D230BCFB
:108FE000530724BFB1E80810A0E8081044BF51F8A7
:108FF000043B40F8043BD20724BF31F8022B20F891
:10900000022B44BF0B7803707047121F17D35B000D
:1090100009D151F8043B20F8023B1B0C121F20F829
:10902000023BF6D20BE051F8043B00F8013B1B0A6F
:1090300020F8023B1B0C121F00F8013BF3D238BF93
:10904000121D521E24BF11F8013B00F8013BF8D855
:109050007047000030B44FF6FF73002400E0641C3A
:109060008C420FD2025D53400022082AF7D21D46DF
:109070006D08DB072B4603D583F4204383F00103FF
:10908000521CF2E7180200EB132030BC7047F0B41A
:109090000B684C6800252E461CE027467F0987EAAE
:1090A0000417E71905F0030C52F82CC0AC448CEA05
:1090B0000707FB18204F7D191F467F0987EA031712
:1090C000DF19C5F3C12C52F82CC0AC448CEA070759
:1090D0003C19761C0746BE42DFD30B604C60F0BCE7
:1090E0007047F0B40B684C68134D454300261CE0F4
:1090F0001F467F0987EA0317DF19C5F3C12C52F811
:109100002CC0AC448CEA0707E41B0C4F7D192746A2
:109110007F0987EA0417E71905F0030C52F82CC001
:10912000AC448CEA0707DB1B761C8642E0D30B605D
:109130004C60F0BC70470000B979379E4786C86123
:10914000014648B1B0FA80F18840C91CC1F584617C
:10915000090501EBD02140057047000081B0009067
:109160000098411E00910028FAD101B0704780B5E7
:1091700001210C2000F062FA0820ADF80000142054
:109180008DF8030003208DF802006946374808F087
:10919000F1FD4FF40040ADF8000014208DF80300FD
:1091A00003208DF802006946314808F0E3FD0120F4
:1091B000304908603049086001BD38B52E4C0120A7
:1091C00020602C4D28600520FFF7C8FF002020609C
:1091D0000520FFF7C3FF0020286031BD38B5254CBE
:1091E00000202060244D28600520FFF7B7FF0120F4
:1091F00020600520FFF7B2FF0120286031BD38B59F
:10920000012420461C4908600520FFF7A7FF1B48E2
:109210000068002800D10024164D01202860052098
:10922000FFF79CFF002028600520FFF797FF2046EE
:1092300032BD70B505460F4C00202060064610E098
:109240002846C0B2C0090C4908606D000520FFF730
:1092500085FF012020600520FFF780FF00202060AF
:10926000761C3046C0B20828EADB70BD000C014015
:10927000000801408C812142BC0121423C01214275
:1092800070B504460D461646FFF797FF640020466A
:10929000C0B2FFF7CEFFFFF7B2FF2846FFF7C9FFC6
:1092A000FFF7ADFF3046FFF7C4FFFFF7A8FFBDE8AB
:1092B000704093E7F8B504460D4616461F46FFF783
:1092C0007CFF76003046C0B2FFF7B3FFFFF797FF91
:1092D0003846FFF7AEFFFFF792FF05E014F8010BE9
:1092E000FFF7A7FFFFF78BFF2846451EC0B20028F7
:1092F000F4D1BDE8F14071E7B0B581EA030C0CF0A0
:10930000004C40F2FF7515EA11541DBF15EA1357C2
:10931000AC42AF4239E0E41923EA455343F48013E9
:10932000C90241F0004141EA505EC7021100A7FBAB
:10933000020200284FF00000EEFB01204FF0000178
:10934000E3FB072118BF42F0010240180021494108
:10935000E3FB0E01A4F580640F0302D252004041EA
:10936000494154F101046CDD470872F1004250F1AB
:10937000000051EB0451A1F580115CBF41EA0C01E2
:10938000B0BD4CEA05510020B0BD05EA1357AC4210
:1093900014BFAF4241E050EA410E1CBF52EA430EF7
:1093A00002E061460020B0BD24423C441BD15FEA8C
:1093B000070EF6D0090302BF01460020AEF1140EDD
:1093C000B1FA81F7AEEB070401FA07FE0C37C7F1DB
:1093D000200100FA07F7C8404EEA000E23EA455381
:1093E00043F48013A2E733F00043B3FA83F704BFDA
:1093F000B2FA82FE77440B3FE41BB7F1200E2FBF79
:1094000002FA0EF3BB40C7F1200E22FA0EFE38BF5F
:1094100043EA0E03BA40641C82E750EA410E14BFCF
:1094200052EA430E6FF000014FF4001717EB430FA1
:109430008ABF194617EB410FB5E74CEA05510020EA
:10944000B0BDD4F10104B4F120070FDAC4F1200754
:10945000520828BF42F0010210FA07F501FA07F797
:10946000E1BF2A43E0403843E1400FE0352C98DC6F
:10947000C7F1200452EA400220FA07F218BF42F076
:10948000010231FA07F0A1400A43002172F10042C3
:1094900050F1000051EB0C01B0BD000070B44FF072
:1094A000004591EA030F7FF513AA6B40841A71EB14
:1094B000030603D2001BB141121973414FF4001C83
:1094C0001CEB410F34BF7CEB430442E00C0DA4EBDA
:1094D0001356352E4FDC45EAC323DB0A45EAC1218A
:1094E000C912B6F120050DDD63FA05F6EB4086EAF8
:1094F0000305124218BF45F00105C01851F10001E3
:109500000CD213E062FA06F5F2405540F3415A409E
:10951000B340F3405A408018594107D349085FEAE5
:1095200030005FEA350528BF45F0010501F58011DF
:10953000420875F1004250F1000041EB04514E0029
:1095400016F5001F70BC38BF70470020090D0905D3
:1095500070471CEB410F10D252EA43060BD0BCEB14
:10956000410F05D80C0DAB43661E342EB6DD02E06C
:10957000AB438018594170BC704770BC7047000005
:109580004849086840F0010008604A6846480240BF
:109590004A600A68454802400A60086820F4802052
:1095A0000860486820F4FE0048604FF41F0088609F
:1095B00070473F49086070473E4A136823F47C13A4
:1095C00018430843106070473B49086070473949A9
:1095D0000A68920850EA82000860704735480068BF
:1095E00000F00C00704733490A6822F0F002104383
:1095F000086070472F490A6822F4E062104308604F
:1096000070472C490A6822F4605242EAC0020A609C
:1096100070472A490860704726490A6822F4404288
:10962000104308607047264A0029116802D0084399
:109630001060704721EA000010607047214A00293D
:10964000116802D008431060704721EA00001060E2
:1096500070471D4A0029116802D008431060704706
:1096600021EA000010607047184A0029116802D0F2
:1096700008431060704721EA0000106070470146FF
:109680004009084A012801D1106804E0022801D1EC
:10969000106A00E0506A01F01F01C84000F00100AC
:1096A00070470000001002400000FFF8FFFFF6FEC8
:1096B000000042420410024060004242D800424290
:1096C00014100240181002401C1002400C100240FE
:1096D00010B40488DFF8A031984212D0DFF8B0212E
:1096E00090420ED0B0F1804F0BD0DFF89021904225
:1096F00007D0DFF88C21904203D0DFF88821904218
:1097000004D14FF68F7214404A881443DFF8782151
:10971000904208D0DFF87421904204D04FF6FF4207
:109720001440CA88144304808A8882850A88028586
:1097300098420FD0DFF8582190420BD0DFF8542127
:10974000904207D0DFF85021904203D0DFF84C213F
:10975000904201D1097A01860121818210BC7047B3
:1097600030B4038C4FF6FE7213400384058C83885B
:10977000048B4FF68C7214400A8814434FF6FD7226
:1097800015400A8915434A881543DFF8EC209042BA
:109790000FD0DFF8FC2090420BD0DFF8F820904289
:1097A00007D0DFF8F420904203D0DFF8F020904299
:1097B00010D14FF6F77215404A8915434FF6FB72E8
:1097C00015408A8815434FF6FF4213408A89134398
:1097D000CA89134383800483C9888186058430BC89
:1097E0007047002904D0018841F0010101807047D1
:1097F00002884FF6FE710A40028070470029B0F8D7
:10980000441004D041F40041A0F844107047C1F363
:109810000E01A0F844107047002A828902D011433B
:109820008181704722EA010181817047002904D0BB
:10983000018841F080010180704702884FF67F71F6
:109840000A4002807047038B4FF6F77213401943AA
:10985000018370478186704702460020138A0B40BF
:1098600092891140002B02D0002900D001207047BE
:10987000C943018270470000002C014000040040F1
:1098800000080040000C00400010004000140040A0
:1098900000340140004001400044014000480140C4
:1098A000094908607047094908607047084908601D
:1098B00070474AF6AA200449086070474CF6CC402D
:1098C000014908607047000000300040043000404B
:1098D000083000400448C06102210172034901625E
:1098E000034A4262086800472C32002054060020D8
:1098F00084060020000000E0F8180C0C0C8CCC78DA
:10990000F8E000000000001F7F78CCC6C3C1C06033
:109910007F1F000000000000303038FCFC00000019
:109920000000000000000000C0C0C0FFFFC0C0C0B9
:109930000000000000000070781C0C0C0C0C8CDC8B
:10994000F8700000000000C0E0F0F8DCCEC7C3C132
:10995000C0C0000000000070781C0C0C0C0C0C9CAB
:10996000F8F000000000003878E0C3C3C3C3C3E7C9
:109970007D3800000000000080C0E070381CFCFC56
:10998000000000000000000F0F0D0C0C0C0CFFFF7E
:109990000C0C0000000000FCFC8C8C8C8C8C8C8CE3
:1099A0000C0C00000000003171E1C1C1C1C1C1E374
:1099B0007F3E000000000000C0E070381C0C0C0C62
:1099C000000000000000003F7FE7C3C3C3C3C3E73C
:1099D0007E3C00000000000C0C0C0C0C0C0CCCFCB1
:1099E0003C0C0000000000000000C0F03C0F030031
:1099F0000000000000000000F0F89C0C0C0C9CF82B
:109A0000F00000000000003C7EE7C3C3C3C3C3E70F
:109A10007E3C0000000000F0F89C0C0C0C0C0C9C30
:109A2000F8F000000000000001C3C3C3E3733B1F54
:109A30000F03000000000000000000000000000014
:109A40000000000000000000000000000000000016
:109A5000000000000000000000000000F000000016
:109A60000000000000000101010101011F010101CE
:109A700001010100000000000000000000000000E3
:109A800000000000000101010101010101010101CB
:109A9000010101000038283880C0606060606040CB
:109AA00080000000000000001F3F606060606020D8
:109AB00010000000000000000000C0C0C0C0000096
:109AC00000000000000000000000303030300000D6
:109AD000000000000038283800FCFC8C8C8C8C8C3A
:109AE0008C00000000000000007F7F0101010101E7
:109AF00001000000FCFC0000000000C0C0000000ED
:109B00000000FCFC7F7F30180C0603010103060CEB
:109B100018307F7F00000C12120C00FEFE86868635
:109B20008686060000000000000000FFFF01010122
:109B30000101000000806010080464940404B44C27
:109B40000484848484848404040404040404844415
:109B50002464A42424242424242424E40408106059
:109B6000800000000000806010080484C4E4E4E485
:109B7000E4C4840404040404040404040404040485
:109B800004040404040484C4E4E4E4E4C484081085
:109B900060800000000718204080828180828285DA
:109BA00085888F8888888F858585858585858D952D
:109BB000A7B0AFA0A0A0A0A0A0A0A0BF80402018E8
:109BC0000700000000000718204080848C9C9C9CAB
:109BD0009F8F878383838383838383838383838329
:109BE000838383838383878F9F9C9C9C8C8440206A
:109BF0001807000000806010080464940404B44C4A
:109C00000484848484848404040404040404844454
:109C10002464A42424242424242424E40408106098
:109C200080000000000000F8F8808080F80080408C
:109C3000404040800080404040408000004040F86C
:109C400040400000D00040804040408000804040C4
:109C50004080000000071820408082818082828539
:109C600085888F8888888F858585858585858D956C
:109C7000A7B0AFA0A0A0A0A0A0A0A0BF8040201827
:109C8000070000000000001F1F0101011F000F124C
:109C90001212120B000C121212120F100000000F01
:109CA000100800001F00001F0000001F00478888E8
:109CB000887F000000E0F01010200000808080808D
:109CC00000008080F08080008080F0808000A00014
:109CD0008000808080800000008080808000000004
:109CE000000000000000806010080484C4E4E4E484
:109CF000E4C4840404040404040404040404040404
:109D000004040404040484C4E4E4E4E4C484081003
:109D100060800000000811111F0E000F12121212B5
:109D20000B0000000F10080000000F1008001F00BB
:109D3000001F000000001F004F909090907F0000D7
:109D40000000000000000718204080848C9C9C9C30
:109D50009F8F8783838383838383838383838383A7
:109D6000838383838383878F9F9C9C9C8C844020E8
:049D700018070000D0
:10A00000FFFFFFFFFFFFFFFFFFFFFFFF01F0004229
:10A010008B1AA3F16051B1F5801F0ADBB1F17F6F9C
:10A020001FD242EAC102C10071F1004142EB5070FF
:10A0300070470B15C3F10903212B10D2890241EAA5
:10A04000905180020128494141F0004121FA03F07A
:10A05000C3F12003994071F1004150417047100055
:10A0600070476FF0000013EB103F5CBF000E42EA38
:0EA07000C0507047004870470C070020704732
:10A08000042801D1014870470020704799FA000860
:10A090000146122902DADFF89C1408707047DFF8D5
:10A0A000940400787047DFF8900400787047024607
:10A0B000C021DFF88804FEF719B80A2251430128AD
:10A0C00007D101EBC101052091FBF0F101F54861D9
:10A0D00006E001EB8101A1F57A51092091FBF0F135
:10A0E000104691FBF0F002FB1012052A02DB401C27
:10A0F00000B2704700B27047000000002DE9F04345
:10A1000087B081460C46904601F0FCFD3C2190FB57
:10A11000F1F501F0F7FD3C2190FBF1F1C1EB0112EB
:10A12000A0EB8206DFF81074B888401CB88000B23B
:10A130001A28C0F2EC800020B880F888401CF88013
:10A14000B9F1010F2BD06DD3B9F1030F01D04BD36F
:10A1500068E000B2142801DD0020F880B7F906009D
:10A1600001460A290FDA00210191DFF8D4230146C4
:10A17000521A521E00920823024692B219465620E5
:10A1800000F016F94EE014294CDA00210091082362
:10A19000012219464C3080B2FEF74FF842E000B27F
:10A1A000102801DB0020F880B7F9061008460828BF
:10A1B0000DDA00200190DFF88C03009008230A22BA
:10A1C000C1F10F0109B2562000F0F2F82AE0102880
:10A1D00028DA0020009001230A22C1F1170189B278
:10A1E0005620FEF72AF81DE000B2102801DB0020FF
:10A1F000F880B7F906100846082809DA002001900F
:10A20000D148009008230A22562000F0D1F809E036
:10A21000102807DA0020009001230A2289B2562074
:10A22000FEF70BF8B8F1000F31D00821684601F0B5
:10A23000C7FDBDF800800021684601F0C1FDBDF8F2
:10A2400000005FFA88F8B8F1000F0ED1FEF770F940
:10A25000BE49FEF77BF9FEF7F7F902464FEA010324
:10A2600038A102A8FEF714FA38E0FEF7E5FAFEF787
:10A27000EBF90022B64BFEF723FBFEF7E3FB00B23F
:10A280004FEA000231A102A8FEF702FA26E00521FA
:10A29000684601F095FD0098FEF7F2FB80460A2122
:10A2A000684601F08DFDBDF9000000280DD0414643
:10A2B00009B20120FFF701FF0A2190FBF1F212B26F
:10A2C00098A102A8FEF7E4F908E00FFA88F80A203E
:10A2D00098FBF0F294A102A8FEF7DAF9002302AA93
:10A2E00019464820FEF7B1F8002C06D13A78521CE6
:10A2F0008EA102A8FEF7CCF903E08DA102A8FEF71B
:10A30000C7F9002302AA19463A20FEF79EF828460C
:10A31000C0B2642803DB01F0E3FC00252E46F6B250
:10A320003346EDB24FEA05020AA102A8FEF7B0F9E2
:10A33000002302AA08213820FEF787F807B0BDE8FD
:10A34000F08300002025322E30665600202532642E
:10A3500057200000253032643A2530326400000076
:10A36000002800D5704710B400291FD460281DDCD8
:10A3700011291BDA0B469B1001EB5374E4102346A2
:10A38000DBB2A1EBC401012404FA01F103EB4304A5
:10A3900000EB4410C12809DA684B002A1A5C02D08D
:10A3A0001143195402E022EA0101195410BC70470C
:10A3B0002DE9F64F83B0834688460F9C46460190B0
:10A3C0001946491E0846801001EB5071C910491CFE
:10A3D000BDF8100041430291BDF810705F44BFB258
:10A3E0004FF000094846ADF8000014E00022414655
:10A3F00009B200B2FFF7B4FF5EE0B0460BF1010B0B
:10A4000009F101091FFA89F9BDF80230BDF8000011
:10A41000401CADF80000BDF800000299884271D2DE
:10A420002046042839D8DFE800F026033823260028
:10A43000414609B2584600B2404A0D46AD1001EB04
:10A440005575ED1005EB450C00EB4C15525D891B65
:10A450000E9D8C464FEAAC0C01EB5C71C910BDF847
:10A4600010C00CFB01010198091A6D5C154314E042
:10A470000E9DEDB211E0414609B2891B0E9A0846C5
:10A48000801001EB5071C910BDF81050584600B251
:10A4900005FB01010198091A555C4FF0000AADF85F
:10A4A000023016E0A7EB0900E9079FD501224146DB
:10A4B00009B200B2FFF754FFADB26D0808F1010810
:10A4C000404600B2801BBDF80210884295D00AF1C8
:10A4D000010A504680B2082896DA20460428E1D0C6
:10A4E000E80707D50122414609B2584600B2FFF7F6
:10A4F00037FFE1E70022414609B2584600B2FFF7B4
:10A500002FFFD9E705B0BDE8F08FE0B5002001903E
:10A510000A4800901023602200210846FDF73CFE07
:10A5200000200EBD25644600256443004D256400CF
:10A53000412000001733002044070020902F002006
:10A540008E4E01085C4E01087A4E010800007A44E4
:10A550000000E03F3EB50D461446C01F09282ED826
:10A56000DFE800F0050505191E28282328280A2100
:10A57000684601F025FCBDF90000002805D040F236
:10A5800096202880D420208037BD4FF4AF702880DB
:10A590006420208037BD782028800020208037BDAF
:10A5A0000A2028800120208037BD05202880002037
:10A5B000208037BD012028800020208037BD00206A
:10A5C0002880208037BD000010B50446C91F092926
:10A5D00049D8DFE801F0050A0F141648181A1C477D
:10A5E00002EB82004000A08010BD02EB8200400020
:10A5F000208210BD02EB82004000608210BDE2812B
:10A6000010BDA28110BD628310BD228310BD104613
:10A61000A18A884227D0A282B4F90410002A10D05F
:10A620000120FFF74AFDA080B4F910100120FFF7C8
:10A6300044FD2082B4F912100120FFF73EFD608234
:10A6400010BD0020FFF739FDA080B4F910100020E4
:10A65000FFF733FD2082B4F912100020FFF72DFD23
:10A66000608210BDE28210BD0EB401464FF0FF3093
:10A67000C91F092920D8DFE801F005080B0E111FBA
:10A6800014171A1DBDF9040016E0BDF9100013E0FF
:10A69000BDF9120010E0BDF90E000DE0BDF90C008F
:10A6A0000AE0BDF91A0007E0BDF9180004E0BDF9A1
:10A6B000140001E0BDF9160003B070472DE9F04128
:10A6C00092B00746FFF7EBFC054605210FA8FEF701
:10A6D00090FA06AA0DF11A012846FFF73BFFDFF8B2
:10A6E000906B06F12404E078002814D00020E0707C
:10A6F00001F0FFFA2071304601F00FFEB6F91400A8
:10A7000060810520FEF78AFA012342F210720521CA
:10A710006846FEF7CBF9A8464046C01F0A2800F25B
:10A720005F82DFE810F00B00AD00D70043007E0031
:10A73000090136016C019D01D3010002DFF8341BD1
:10A740000878002807D000200870B6F904000A2114
:10A7500090FBF1F020812078002840F04182002316
:10A760000FF65C1219460846FDF76FFE0B23012217
:10A770000FF6C81107A8FDF78BFF002307AA19469B
:10A780004120FDF762FEB4F90A00002840F0CC80B9
:10A79000B4F908200FF6301107A8FDF779FF002360
:10A7A00007AA08212720FDF750FE19E2DFF8C41A96
:10A7B0000878002804D000200870B6F90E00208127
:10A7C0002078002840F00C8200230FF6041219466E
:10A7D0000846FDF73AFE0B2304220FF6601107A886
:10A7E000FDF756FF002307AA19464120FDF72DFE6D
:10A7F000B4F90820002A05D10FF6701107A8FDF75B
:10A8000047FF03E095A107A8FDF742FFB4F9080050
:10A810000A28C4DA002307AA08212120FDF715FE23
:10A82000DEE1DFF8501A0878002804D00020087014
:10A83000B6F90C0020812078002840F0D181002357
:10A840000FF6980219460846FDF7FFFD0B23052277
:10A850000FF6E80107A8FDF71BFF002307AA19461A
:10A860004120FDF7F2FDB4F908207CA107A8FDF70F
:10A870000FFF002307AA08212120FDF7E6FDAFE125
:10A88000DFF8F0190878002807D000200870B6F922
:10A8900010000A2190FBF1F020812078002840F080
:10A8A0009F8100230FF6400219460846FDF7CDFDB3
:10A8B0000B2302220FF6840107A8FDF7E9FE00230F
:10A8C00007AA19464120FDF7C0FDB4F90A00002887
:10A8D0002AD15DE7DFF89C190878002807D000200E
:10A8E0000870B6F912000A2190FBF1F0208120785F
:10A8F000002840F0758100230FF2F47219460846D3
:10A90000FDF7A3FD0B2303220FF6300107A8FDF787
:10A91000BFFE002307AA19464120FDF796FDB4F9B2
:10A920000A0000283FF434AFB4F908200FF2C871D0
:10A9300007A8FDF7ADFE32E7DFF8381908780028E0
:10A9400003D000200870207920812078002840F072
:10A95000478100230FF2A87219460846FDF775FDDE
:10A960000B2306220FF2D47107A8FDF791FE0023F6
:10A9700007AA19464120FDF768FDB4F90800002830
:10A9800040F0CA800023C0A208212720FDF75DFD0A
:10A9900026E1DFF8E0180878002804D000200870CD
:10A9A000B6F91A0020812078002840F01981002390
:10A9B0000FF2587219460846FDF747FD0B23072290
:10A9C0000FF2787107A8FDF763FE002307AA194666
:10A9D0004120FDF73AFDB4F90800002807D0002314
:10A9E0000FF2787208212120FDF72FFDF8E00023F7
:10A9F0000FF2707208212120FDF727FDF0E0DFF84B
:10AA000074180878002804D000200870B6F91800DF
:10AA100020812078002840F0E38000230FF2F862C4
:10AA200019460846FDF711FD0B2308220FF20C71A1
:10AA300007A8FDF72DFE002307AA19464120FDF7C0
:10AA400004FDB4F9082005A107A8FDF721FE0023A5
:10AA500007AA08212120FDF7F8FCC1E02533640096
:10AA6000DFF810180878002804D000200870B6F924
:10AA7000140020812078002840F0B28000230FF2DB
:10AA8000A06219460846FDF7E0FC0B2309220FF2ED
:10AA9000AC6107A8FDF7FCFD002307AA1946412079
:10AAA000FDF7D3FCB4F90800002807D000230FF20B
:10AAB000CC6208211520FDF7C8FC91E000230FF2BD
:10AAC000C86208211520FDF7C0FC89E0DFF8A41753
:10AAD0000878002804D000200870B6F916002081FC
:10AAE000207800287CD100230FF2406219460846E6
:10AAF000FDF7ABFC0B230A220FF2406107A8FDF71C
:10AB0000C7FD002307AA19464120FDF79EFCB4F9B2
:10AB1000080000283FF436AF0023B8A20821272000
:10AB2000FDF793FC5CE0DFF84C170878002801D0B3
:10AB3000002008702078002813D100230FF2F4526F
:10AB400019460846FDF781FC0B231A460FF2EC511B
:10AB500007A8FDF79DFD002307AA19464120FDF730
:10AB600074FC207801283BD19DF83D00002837D0A7
:10AB7000A078401CA0706078002807D000230FF256
:10AB8000C45208211520FDF760FC06E000230FF2F7
:10AB9000C05208211520FDF758FC6078401E804106
:10ABA000C00F6070A078052807DC01234FF4FA720B
:10ABB00005216846FDF77AFF0CE00020A070208098
:10ABC000304601F0AFFB012342F2107205216846C6
:10ABD000FDF76CFF00208DF83D000520FEF71EF804
:10ABE0002078012840F0F480A8F10708B8F1090F97
:10ABF00000F2D680DFE808F005050594186C804A5D
:10AC0000AFC3B4F908200FF26C5107A8FDF740FD5F
:10AC1000B4F908000A28C0F29780002307AA082187
:10AC20002720FDF712FCBBE0B4F908200FF24451D5
:10AC300007A8FDF72DFD002307AA08212120FDF715
:10AC400004FCB4F90800A1790246914200F0A88002
:10AC5000FEF71EF802460B46072001F049FAB4F948
:10AC60000800FEF727F8DFF8C81BFDF76FFCDFF8D8
:10AC7000C41BFEF731F8FDF703FFC0B2FDF7C4FABD
:10AC80002089A0718CE000BF4F464600B4F908202F
:10AC90000FF2E04107A8FDF7FBFC002307AA0821FB
:10ACA0002120FDF7D2FBB4F90800617902469142F8
:10ACB00076D080B2FEF77CF8B4F90800FDF7E8FF23
:10ACC00002460B46092001F013FA2089607167E003
:10ACD000B4F90800002806D0002348A20821272044
:10ACE000FDF7B3FB05E0002345A208212720FDF76F
:10ACF000ACFB2089207153E0B4F90800002807D08C
:10AD000000230FF2584208212120FDF79EFB47E067
:10AD100000230FF2504208212120FDF796FB3FE06F
:10AD2000B4F90820002A05D10FF2404107A8FDF729
:10AD3000AFFC04E00FF23C4107A8FDF7A9FCB4F911
:10AD400008000A28BFF669AF002307AA08212120BE
:10AD5000FDF77BFB24E0B4F90800002807D00023AE
:10AD60000FF2184208211520FDF76FFB18E00023B1
:10AD70000FF2144208211520FDF767FB10E0B4F92B
:10AD80000800002806D000231CA208212720FDF778
:10AD90005CFB05E000231AA208212720FDF755FBE4
:10ADA0002846112814D0002002900190009008231A
:10ADB0001A461146FDF783FB002002900120019006
:10ADC0000020009008231A4611465820FDF777FB13
:10ADD000A078002840F03181384601281CD1207825
:10ADE00001280FD12089401E208100B2BDF8181023
:10ADF000884221DABDF9180020811DE0204F4E0065
:10AE00004F464600002840F00E816D1E2846C0B215
:10AE1000062857DC112555E0022839D12078012871
:10AE20001AD12089801E208100B2BDF818108842F6
:10AE300002DABDF91800208128460A2874D1B4F935
:10AE40000800012805D0022803D0032801D00428D7
:10AE50006AD10020208167E0002840F0E4800120D2
:10AE60002070034641F2883205216846FDF71EFE38
:10AE70002846112840F0D7800020A0700120607083
:10AE800003464FF4FA7205216846FDF70FFECAE04B
:10AE900004282AD1207801280BD12089401C208148
:10AEA000BDF81A1000B281422FDABDF91A002081D4
:10AEB0002BE0002840F0B7806D1C2846C0B2122855
:10AEC00000DB07250120DFF8AC1308700020FFF736
:10AED000EEF82846C0B2FFF7DBF8012342F2107209
:10AEE00005216846FDF7E2FD9DE005284CD120785C
:10AEF000012821D12089801C2081BDF81A1000B2C0
:10AF0000814202DABDF91A00208128460A280BD1B5
:10AF1000B4F90800012805D0022803D0032801D085
:10AF2000042801D105202081012341F28832052126
:10AF30006846FDF7BBFD76E0002874D10120E07083
:10AF4000207900F0D2FE314684B068462422FEF714
:10AF50003DF80FBC01F0D6F9F08A002803D001209B
:10AF600000F0E4FE02E0002000F0E0FE02F023FC2E
:10AF70000020FFF79CF80020FFF78AF80022134614
:10AF80000C2001F0B5F84EE007281BD120780128ED
:10AF900049D1002020702846112805D0208902467A
:10AFA00029463046FFF710FBB6F9140060810020F7
:10AFB000FFF77DF8012342F2107205216846FDF784
:10AFC00075FD30E0082F2ED12078012817D1002000
:10AFD0002070314683B068462422FDF7F7FF0EBC8F
:10AFE0002846FFF741FB20810020FFF760F801238E
:10AFF00042F2107205216846FDF758FD13E0002863
:10B0000011D101209B490870E0700020FFF74FF834
:10B010000020FFF73DF8002213460C2001F068F8ED
:10B020000520FDF7FBFD2078012803D1012003F066
:10B03000E9F802E0002003F0E5F89DF83D00002863
:10B040003AD02078002812D101208A490870E07097
:10B050000020FFF72CF80020FFF71AF80022134613
:10B060000C2001F045F80520FDF7D8FD24E001286B
:10B0700016D100202070208902462946C9B23046E8
:10B08000FFF7A2FAB6F9140060810020FFF70FF86D
:10B09000012342F2107205216846FDF707FD0BE01F
:10B0A000A078002808D100202070012342F21072FD
:10B0B00005216846FDF7FAFC12B0BDE8F0810000FA
:10B0C0004D312054656D700025336443000000004D
:10B0D000536C6565702054696D6500004261636B57
:10B0E0006C696768740000004D322054656D700013
:10B0F0004D332054656D7000253364460000000018
:10B1000054696C7420416E676C65000053686F77FA
:10B110002054797065000000566F6C756D650000F5
:10B1200054656D7020547970650000004C6F772075
:10B1300043757200526573746F7265002532642F17
:10B1400025326400436F6D706C65746564000000A7
:10B15000202020202020202020000000506F776534
:10B1600072000000566F6C7420000000204F4646AD
:10B170000000000025336420000000004465677271
:10B18000656573204600000044656772656573203D
:10B19000430000002DE9FE438046894600F0B6FDDD
:10B1A000054603F035F907460A21684600F008FE17
:10B1B000BDF900403888022858DB7888002855D02F
:10B1C000DFF8206AB9F1000F13D000207080B7F9C2
:10B1D000040000EB80014800002C07D0014609B2B2
:10B1E0000020FEF76AFF03F07FFA02E000B203F0EE
:10B1F0007BFA3078002805D1B8F1030F02D1012085
:10B20000307075603078002830D07188084607EBC0
:10B210008000C28870688218954227D3491C7180CB
:10B22000388889B281420AD300207080788800284B
:10B2300005D04FF6FF71884201D0401E7880381D3E
:10B24000718830F9210000EB80014800002C07D004
:10B25000014609B20020FEF730FF03F045FA02E094
:10B2600000B203F041FA002030707560BDE8F7834A
:10B27000C8050020E43200202DE9F0478EB00746D3
:10B28000FEF70DFF824605210BA8FDF7B2FC012158
:10B29000684600F095FDBDF900800521684600F084
:10B2A0008FFD0098FDF7ECFB81460FFA89F903F05A
:10B2B0008FF906460A21684600F082FDBDF900407C
:10B2C000DFF82459BAF1030F04D0BAF1040F00F0EB
:10B2D000508100E20D210BA8FDF78BFC002C1FD044
:10B2E00041460120FEF7E9FE80462878002803D079
:10B2F00002280FD007D313E00221684600F060FD5A
:10B30000BDF900900CE00321684600F059FDBDF93D
:10B31000009005E00421684600F052FDBDF9009060
:10B3200000203146032900D10F2000EB0901002C39
:10B3300017D041450CDBA9EB0000804508DB0A2053
:10B3400099FBF0F20FF6D40103A8FDF7A1F91FE075
:10B350000A2098FBF0F20FF6C40103A8FDF798F954
:10B3600016E041450CDBA9EB0000804508DB0A2014
:10B3700099FBF0F20FF6AC0103A8FDF789F907E09D
:10B380000A2098FBF0F20FF69C0103A8FDF780F964
:10B39000002303AA19460846FDF734F86878002808
:10B3A0000CD19DF82D0000280AD0E878401E80417D
:10B3B000C00FE8700D20FDF731FC01E00020E870BF
:10B3C000EA7869783046FEF799FE3846022851D16E
:10B3D0002878002803D0022817D00BD31FE00221C1
:10B3E000684600F0EDFCBDF900000A2190FBF1F089
:10B3F000288114E00321684600F0E2FCBDF900005A
:10B400000A2190FBF1F0288109E00421684600F050
:10B41000D7FCBDF900000A2190FBF1F028812889B2
:10B4200000EB80014900002C06D009B20020FEF795
:10B4300044FE03F059F903E0084600B203F054F962
:10B440000020FEF734FE022003F0AFF80420FEF7E0
:10B450001FFE012341F2883205216846FDF726FBD5
:10B46000012002F0CFFE0020E8700120DFF87C17F9
:10B47000087073E0052819D10020FEF718FE00209F
:10B48000FEF706FE022003F090F8002213460C207F
:10B4900000F02EFE0D20FDF72AFB0120A8700020F1
:10B4A0006870E8700D20FDF744FB57E0012849D192
:10B4B0002878401C2870C0B2032801DB00202870C7
:10B4C000002068700120A8700020E8700D20FDF7B2
:10B4D00030FB2878002803D0022817D00BD31FE0B8
:10B4E0000221684600F06CFCBDF900000A2190FBC7
:10B4F000F1F0288114E00321684600F061FCBDF9F9
:10B5000000000A2190FBF1F0288109E0042168463F
:10B5100000F056FCBDF900000A2190FBF1F02881F3
:10B52000288900EB80014800002C07D0014609B2B1
:10B530000020FEF7C2FD03F0D7F80FE000B203F0E1
:10B54000D3F80BE0042802D100F0CAFB06E0082F74
:10B5500004D16878401E8041C00F68706878002868
:10B5600000F0B980A9783046FFF714FE0020A870DB
:10B57000B1E04FF4AF766420002C0FD040F6AC5110
:10B580000120FEF79AFD0A2190FBF1F64FF47A7143
:10B590000120FEF792FD0A2190FBF1F0B5F90810A9
:10B5A00032460B4612B29A4201DA2E8104E002467C
:10B5B00012B2914200DA2881B5F908209BA103A8B4
:10B5C000FDF766F8002303AA19462420FCF75BFF69
:10B5D0000020029001900220009010231A460021C2
:10B5E0000846FCF76CFF0020029001200190022029
:10B5F000009010231A4600215020FCF760FF3846C7
:10B60000012801D002280AD12889401E288101235F
:10B6100041F2883205216846FDF748FA0DE004281A
:10B6200001D0052809D12889401C2881012341F235
:10B63000883205216846FDF739FA9DF82D0000286B
:10B6400001D1072F47D10020FEF731FD0A242889B8
:10B65000604300B203F048F82878002803D002289D
:10B6600019D00CD322E0B5F9080044432046FDF779
:10B670000FFB02460B46022000F03AFD16E0B5F93A
:10B68000080044432046FDF703FB02460B46032017
:10B6900000F02EFD0AE0B5F9080044432046FDF70E
:10B6A000F7FA02460B46042000F022FD012002F0CA
:10B6B0007CFF0320FEF7ECFC0520FDF7AFFA00202D
:10B6C00002F0A0FD002068700120A8700020E87042
:10B6D0000D20FDF72EFA0EB0BDE8F0872DE9FF41F1
:10B6E00006216846FDF785FA9DF80100002856D02E
:10B6F000DFF8FC4425782846302834DA2E462F46D9
:10B70000DFF8F0840020019007EB08000090082388
:10B71000012200213046FEF74BFE0020019008F187
:10B720006000381800900823012219463046FEF7C1
:10B730003FFEC6F15F060020019008F15F00C01BCC
:10B7400000900823012200213046FEF731FE002040
:10B75000019008F1BF00C71B00970823012219467A
:10B760003046FEF725FE6D1C2570EDB2302D13DB43
:10B770004FF6FF7423464FF4C86206216846FDF772
:10B7800095F923463D2200216846FDF78FF90120F7
:10B79000DFF86414087003E00620FDF73FFA00208C
:10B7A00004B0BDE8F081FEB500250B21684600F02D
:10B7B00007FB009802F049FE06462946684600F05D
:10B7C000FFFABDF800700D21684600F0F9FA009C00
:10B7D00042F21170874206DA2A46DFF820340D2043
:10B7E00000F086FC0125322E06DA0022DFF8103444
:10B7F0000D2000F07DFC0125002C03D0022000F07C
:10B80000FCFD0125012000F007FC002806D10022E4
:10B81000DFF8F0330D2000F06BFC012500F054FA46
:10B82000022800D101252846FEBD00002533640012
:10B830000000204100007F432DE9F84390B0064608
:10B84000FEF72DFC044605210DA8FDF7D2F9DFF81F
:10B85000B853002C40F0A58006210AA8FDF7C9F9CD
:10B860009DF82900002844D0687804283ED8DFE8F5
:10B8700000F0030715233100FFF730FF687035E053
:10B8800000200190DFF88403009010236022002143
:10B890000846FEF78DFD0220687027E00020019029
:10B8A000DFF8500300901023602200210846FEF7C5
:10B8B0007FFD0320687019E000200190DFF850033D
:10B8C00000901023602200210846FEF771FD04203D
:10B8D00068700BE000200190C648009010236022A1
:10B8E00000210846FEF764FD012068700620FDF780
:10B8F00095F9012E06D0022E33D0042E1BD0052E32
:10B900003FD06BE10020FEF7D2FBFFF74CFF002891
:10B9100040F06481012028700320FEF7B9FB00226B
:10B92000B64B0C2000F0E4FB0D20FDF7ECF80120F5
:10B93000AE49087052E1012028700020FEF7B7FBE5
:10B940000720FEF7A5FB00224FF080430C2000F0FB
:10B95000CFFB012342F2107205210AA8FDF7A6F8D9
:10B960003CE1012028700020FEF7A1FB0120FEF73A
:10B970008FFB012341F2883205210AA8FDF796F8D2
:10B980002CE1012028700020FEF791FB0220FEF739
:10B990007FFB012341F2883205210AA8FDF786F8D2
:10B9A0001CE1022C40F087802878002822D001205A
:10B9B00000F0CCF9044600202870FEF778FB00BFA9
:10B9C0000FF2702299A102A8FCF762FE002302AADE
:10B9D00019460846FCF739FD0AA8A0470DF12802D0
:10B9E00096A102A8FCF754FE002302AA08211846DB
:10B9F000FCF72BFDA878002818D00020FEF757FB95
:10BA00005FF000038FA219460846FCF71EFD68464A
:10BA100000F053F9DDF804208DA102A8FCF738FEF0
:10BA2000002302AA08211846FCF70FFD300028D099
:10BA3000E878032825D8DFE800F00208111A30461C
:10BA400004281ED10120E8701BE03046022802D1F4
:10BA50000220E87015E00020E87012E0304604286B
:10BA600002D10320E8700CE00020E87009E03046C5
:10BA7000072804D10020E8700120A87001E0002010
:10BA8000E870002E06D0012340F6B83205210AA83E
:10BA9000FDF70CF89DF83500002800F09F8000208D
:10BAA000A870E870FEF703FB0020FEF7F1FA05200E
:10BAB000FDF7B4F892E0012C40F09080287800283F
:10BAC00000F0768002F0C1FC81460121684600F05A
:10BAD00077F9BDF900700A21684600F071F9BDF9E7
:10BAE00000800021684600F06BF9BDF8004000209E
:10BAF0002870FEF7DCFA00F0E7F8012843D100F0E7
:10BB0000D3F800F031FE00904846FDF7D3F84149E4
:10BB1000FCF71CFDFCF798FD02460B464EA102A85F
:10BB2000FCF7B6FD002302AA19460846FCF78DFC77
:10BB30002046FCF7FDFC3849FCF708FDFCF784FDC6
:10BB400004460D46B8F1000F0DD039460120FEF72E
:10BB5000B4FACDE900450A2190FBF1F242A102A816
:10BB6000FCF796FD08E0CDE900450A2097FBF0F2CE
:10BB700041A102A8FCF78CFD002302AA0821184667
:10BB8000FCF763FC14E000BF3FA102A8FCF780FDB6
:10BB9000002302AA19460846FCF757FC3EA102A85A
:10BBA000FCF776FD002302AA08211846FCF74DFC9D
:10BBB000002E06D0012340F6B83205210AA8FCF772
:10BBC00075FF9DF83500002808D00020FEF76FFAB9
:10BBD0000020FEF75DFA0520FDF720F811B0BDE862
:10BBE000F0830000CC32002044070020A432002063
:10BBF00018330020349B0008143300200000F03F6D
:10BC00000000104000002040E4320020F49B0008B7
:10BC1000B49C00080000204100007A4425336441B0
:10BC2000000000002533643D00000000537665727B
:10BC30003A257300322E31310000000048766572DB
:10BC40003A25730053756D4865617454696D6500DC
:10BC50002564206D696E0000523A252E316620540D
:10BC60007970653A2573000054656D703A25644615
:10BC700020563A252E30660054656D703A2564438F
:10BC800020563A252E306600523A2D2D20547970D8
:10BC9000653A4E6F6E65000054656D703A2D2D202B
:10BCA000563A2D2D00000000DFF8181C08884FF6CA
:10BCB000FF72904200D1888B7047DFF8081CD1E9F1
:10BCC0000023C0E900237047DFF8F80BC07A704703
:10BCD000DFF8F01BC8727047DFF8E80B807A704716
:10BCE0000020DFF8E41B08807047DFF8E01B0870D5
:10BCF0007047DFF8D80B007870470020DFF8D01BC2
:10BD000008807047DFF8C00B00887047DFF8B80B79
:10BD100040687047DFF8C01C0870704701B49DF898
:10BD20000000DFF8B81C087001B0704701B49DF83E
:10BD30000000DFF8901B087201B07047DFF89C0C20
:10BD400000787047DFF8980C0088704710B503281A
:10BD500033D8DFE800F0020E1A26DFF8784B2068AF
:10BD6000002804D10020DFF87C1C88472060206870
:10BD700010BDDFF8604B6068002804D10120DFF8B7
:10BD8000641C88476060606810BDDFF8484BA0689D
:10BD9000002804D10220DFF84C1C8847A060A0686E
:10BDA00010BDDFF8304BE068002804D10320DFF835
:10BDB000341C8847E060E06810BD002010BD000022
:10BDC0001CB50446002000900846C0B2102800F3BD
:10BDD0007780C9B200F27480DFE801F0090F1643E2
:10BDE0004A1D353C51585F21262C31666C00DFF826
:10BDF000A40C0088ADF8000062E0DFF8980CB0F900
:10BE00000200ADF800005BE0DFF8880CB0F9040038
:10BE1000ADF8000054E002F08AFC009050E0DFF83A
:10BE2000740C806800904BE0DFF8680C407F8DF860
:10BE3000000045E0DFF85C0C006A009040E0DFF8AD
:10BE4000580C00903CE0DFF84C0CB0F90E00ADF857
:10BE5000000035E0DFF83C0CB0F90C00ADF8000054
:10BE60002EE0DFF8300CB0F91000ADF8000027E04C
:10BE7000DFF8200CB0F91200ADF8000020E0DFF888
:10BE8000140CB0F91A00ADF8000019E0DFF8040C4A
:10BE9000B0F91800ADF8000012E0DFF8F80BB0F9C7
:10BEA0001400ADF800000BE0DFF8E80B007F8DF820
:10BEB000000005E0DFF8DC0BB0F91600ADF800007B
:10BEC000DDE90001C4E9000113BD2DE9F74183B0AC
:10BED0000446DFF87C5CAF8B062638467043284466
:10BEE00004A93246FDF762F87F1CAF83687D002805
:10BEF0002DD04FF08948DFF85C0CDFF8901C03F080
:10BF000097F9FEF783F84146FCF7E6FEFCF7B8FD2B
:10BF10006883DFF87C0CDFF8E01C03F089F9FEF79A
:10BF200075F84146FCF7D8FEFCF7AAFDE882DFF879
:10BF3000600CDFF8C41C03F07BF9FEF767F841469C
:10BF4000FCF7CAFEFCF79CFD288300206875BFB291
:10BF5000032F03DB0020A8830120287500220C2179
:10BF60006846FCF7C3F86946287D002826D00020E3
:10BF700010E006FB00F2009BAF5EFB1800934B68DD
:10BF8000AF1CBF5EFB184B608B682F1DBA5ED318C9
:10BF90008B60401C0328ECDB0098032290FBF2F03E
:10BFA000ADF81000486890FBF2F0ADF81200886818
:10BFB000114690FBF1F0ADF8140025E0002011E0EF
:10BFC00006FB00F2009BAF5EFB1800934B68AF1CB2
:10BFD000BF5EFB184B608B682F1DBA5ED3188B6059
:10BFE000401C80B2AA8B9042EADB009890FBF2F0F2
:10BFF000ADF81000486890FBF2F0ADF812008868C8
:10C0000090FBF2F0ADF81400204604A93246FCF78C
:10C01000CDFF06B0BDE8F08138B584B005460024F8
:10C020000320FFF793FE030004D003AA0DF10A01D9
:10C0300002A89847DDE902010A4601466846FFF773
:10C0400044FF280029D1BDF90800BDF90010A1F571
:10C050009672904203DB01F59671814200DA012469
:10C06000BDF90A00BDF90210A1F59672904203DBFA
:10C0700001F59671814201DA44F00204BDF90C0029
:10C08000BDF90410A1F59672904203DB01F596719B
:10C0900081422ADA44F0040427E0012D25D1BDF9BC
:10C0A00004100846002820DDBDF90000002802D554
:10C0B0004042ADF80000BDF90200002802D5404220
:10C0C000ADF80200DFF8880AB0F91A2091420BDAC5
:10C0D000B0F91610BDF90020914206DBB0F9180046
:10C0E000BDF90210884200DB0124204605B030BDB6
:10C0F0000146102900DD704780B50E2900F0B3809D
:10C10000102800F2B080DFE800F00911192938AEDC
:10C110006B77878F97474F57AE9FA70010461946FA
:10C12000FCF790FCDFF8D41B088001BD10461946CF
:10C13000FCF788FCDFF8C41B488001BD1046194697
:10C14000FCF780FCA0F57A7140F6C51289B29142E5
:10C1500080F08980DFF8A41B888001BD1046194655
:10C16000FCF770FCA0F57A7140F6C51289B29142D5
:10C1700079D2DFF8881B088201BD10461946FCF70A
:10C1800061FCA0F57A7140F6C51289B291426AD27B
:10C19000DFF8681B488201BD10461946FDF736FFDF
:10C1A000DFF8581B886001BD10461946FCF74AFCB1
:10C1B000DFF8481B487701BD1046194603F03AF8EE
:10C1C000002850D0DFF8341B11280A6A02D210432D
:10C1D000086201BD20F0004022EA0000086201BDB3
:10C1E00010461946FCF72EFC014689B279293ADA45
:10C1F000DFF8081BC88101BD10461946FCF722FC78
:10C20000014689B20B292EDA014689B200292AD0CB
:10C21000DFF8E81A888101BD10461946FCF712FCC8
:10C22000DFF8D81A488301BD10461946FCF70AFC0E
:10C23000DFF8C81A088301BD10461946FCF702FC56
:10C24000DFF8B81A888201BD10461946FCF7FAFBE0
:10C25000DFF8A81A087701BD10461946FCF7F2FB73
:10C26000DFF8981AC88201BD7CB504460A216846E9
:10C27000FFF7A6FDBDF90050002C02D0012C0BD019
:10C2800073BD0020FDF713FF0020FDF701FF022022
:10C29000BDE8764002F089B9FDF705FF06460020AB
:10C2A000FDF705FFF6B2002E03D0022E0FD007D304
:10C2B00013E002216846FFF783FDBDF900400CE062
:10C2C00003216846FFF77CFDBDF9004005E004212D
:10C2D0006846FFF775FDBDF90040002D04D02146EA
:10C2E0000020FDF7EAFE0446204602F0FDF9012099
:10C2F00002F01AFC80B203F03EF80120BDE876405F
:10C3000002F053B90FB480B5DFF8F00902A9242276
:10C31000FCF75CFE01BC5DF814FBDFF8E019242299
:10C32000FCF754BEDFF8801C02880A8082688A60AD
:10C33000427F4A77026A0A622422FCF747BEDFF88E
:10C340005407DFF8641C2422FCF740BE7CB51021A2
:10C350006846FFF735FDBDF9006007216846FFF725
:10C360002FFDBDF8004009216846FFF729FDBDF803
:10C370000050002E02D00120FFF7D8FCE4B2204686
:10C38000FCF7D6F8DFF8241CFCF7E0F8DFF8201CF7
:10C39000FCF7A2FCFCF774FBC0B2FBF735FFEDB273
:10C3A0002846FCF705FD03F0E7F8002821D003F04C
:10C3B000E3F8044603F0E0F805462046FCF7B8F839
:10C3C000DFF8F01BFCF7C2F80446284603F0E9F852
:10C3D000FCF7AEF801462046FCF77EFCDFF8D41BE4
:10C3E000FCF7B4F8FCF730F902460B460B20FFF7D8
:10C3F0007FFEBDE8734002F087B91FB5DFF8C44483
:10C40000617A02290AD0607201235022092168460C
:10C41000FCF74CFB207B40F0010020731FBDDFF8D0
:10C42000A814012806D10888401C08804868401CD0
:10C430004860704700200880486070472DE9FC4143
:10C440000C216846FFF7BCFC9DF8004007216846B8
:10C45000FFF7B6FCBDF90050ADB2DFF87C65B088DF
:10C460000146B42901DA401CB080707800280DD054
:10C47000002070702846FCF75BF8DFF82C1CFCF7F6
:10C4800065F8DFF82C1BFCF727FCB060307800283B
:10C4900033D00020B0803070B0702846FCF748F8E8
:10C4A0000746DFF80C8BDFF8001CFCF74FF801465D
:10C4B0004046FCF711FCB0603846DFF8F01AFCF794
:10C4C00045F801464046FCF707FCFCF7D9FAC0B234
:10C4D000FBF79AFE0C216846FFF772FC9DF80000FE
:10C4E00003280AD10020FDF7E2FD0120FFF71EFC22
:10C4F000002213460C20FFF7FBFDB07800285DD129
:10C50000002C17D0032C15D00020B08001207070B3
:10C510002846FCF70DF8DFF8941AFCF717F8DFF857
:10C52000901AFCF7D9FBFCF7ABFAC0B2BDE8F641B4
:10C53000FBF76ABEB0885A281FDB2846FBF7F8FFD6
:10C54000DFF8641BFCF702F8DFF8641AFCF7C4FBA1
:10C55000DFF8D01BFBF7FAFF0146B06803F06EF975
:10C5600003D803F07DF9B06001E00020B060B0684E
:10C57000FCF786FA00B2FBF747FEB088B4281DDB53
:10C5800001216846FFF71CFCBDF9000040F2F511DF
:10C59000884213DA0022DFF8903B0C20FFF7A8FD59
:10C5A000022002F002F80020FFF7C0FB0020FDF798
:10C5B0007EFD0020FBF728FE0120B070BDE8F3816E
:10C5C0001CB5044606216846FFF7FAFBBDF90000DA
:10C5D00080B2012C1CD100281DD0BD490A88521CF4
:10C5E0000A8092B2C0EB0013B2EB830F13DB002082
:10C5F0000880024603460C20FFF77AFD0022DFF890
:10C600002C3B0D20FFF774FD0220BDE81640F4E638
:10C610000020AF49088013BD2DE9F0414FF47A7531
:10C620002E46012003F096F9DFF8047B01203860E4
:10C63000022003F034FA052003F0F7FA0446002044
:10C640003860022003F02BFA052003F0EEFA0746CB
:10C65000002003F07FF9DFF88883B4F57A6F1FDAE2
:10C660002046FBF765FF05463846FBF761FF0146AC
:10C67000284603F0F5F80546C4F580543C192046D9
:10C68000FCF718FB01462846FBF760FFDFF824198A
:10C69000FCF722FBFCF7F4F90646A8F8006001E07D
:10C6A000A8F80050304680B2BDE8F081FEB50446DF
:10C6B0000D46164601F0B3FE02282CD101F0CAFE49
:10C6C000002828D101F0C1FEDFF8687AF97A00F07D
:10C6D000EBFAF872022807D101203070FFF79CFFB7
:10C6E000022001F062FF16E03078002803D0FFF747
:10C6F00093FF0020307002F0B6F9DFF8B018FCF7B5
:10C70000EBFAFCF7BDF900B2FCF7C2FA02460B46A1
:10C710000120FFF7EDFC002C25D1002D23D0DFF800
:10C72000144AE08B022803D1022001F03EFF13E0FF
:10C73000002811D101F089FE33280DDB0221684663
:10C74000FFF73EFBBDF9000001F0CEFF207A002884
:10C7500002D0012001F029FFE08B411CE1830E286B
:10C7600001DB0020E083F7BD10B40146002200E0A9
:10C77000521C1046C0B2072809DADFF8BC3903EBB7
:10C7800000100B464489A342F2D110BC70470FF64B
:10C79000D410FAE71FB5DFF89C49607A002849D029
:10C7A00002281CD04BD2607B00280BD10120FFF760
:10C7B000B5FA0123962209216846FCF777F9012092
:10C7C00060731FBD01283AD10020FFF7A7FA0020AF
:10C7D00060726073207B00F0FE0020731FBD607BE1
:10C7E00000280ED1A07B401CA0730120FFF796FA11
:10C7F0000123962209216846FCF758F9012060734D
:10C800001FBD01281BD10020FFF788FA00206073AC
:10C81000A07B042807DB0020A0736072207B00F05F
:10C82000FE0020731FBD0123322209216846FCF758
:10C830003DF91FBD0020FFF771FA0020A0731FBD56
:10C840001CB501216846FFF7BBFABDF900400D2178
:10C850006846FFF7B5FA0098DFF8D818002824D109
:10C86000C87A012802D00020887213BDB4F5FA7F7F
:10C8700002DA0220887213BDA4F2FF1040F22112E6
:10C88000904202D20320887213BDA4F22B3040F2F2
:10C890008742904202D20420887213BD40F2EF70AA
:10C8A00084420DDB0120887213BDC87B401E80418D
:10C8B000C00FC873C87B401E8041C043C00F887240
:10C8C00013BD000074050020BC320020500700207A
:10C8D0000633002078320020FEB504460121684668
:10C8E000FFF76EFABDF90070FFF703FA002872D067
:10C8F0000120FFF791FB0600DFF840580FD02878A1
:10C900000146022903DC0026401C287011E00020AB
:10C910006870A87802280CD10020A87009E0687817
:10C920000146022903DC0126401C687001E000205A
:10C930002870A87801281ED1300002D1B7F5FA7FFF
:10C9400019DA03F0A9F8696801F21451884212D388
:10C950000D216846FFF734FA009F4FF08072DFF830
:10C96000E0370D20FFF7C4FB0220A870082F02D18A
:10C970000020FDF79CFBA87806432CD12046012817
:10C9800019D10120A8700020FDF782FB022001F0E0
:10C990000CFE002213460C20FFF7AAFB0022DFF852
:10C9A000A4370D20FFF7A4FB0220FFF726FD03F0BC
:10C9B00073F86860F7BD002C0DD10120A87000222B
:10C9C000DFF880370D20FFF793FB0220FFF715FDFE
:10C9D00003F062F86860F7BD680500201633002098
:10C9E000043300200120000838B5FF208DF8000036
:10C9F00003F052F80446DFF83C5701F02BFD8DF8A8
:10CA000000009DF80000002805D101F01EFDE97A24
:10CA100000F04AF9E87203F03FF804F5FA71814238
:10CA200003D39DF800000028E7D1FFF7F5FDFBF7E1
:10CA30007FFD044602F017F8DFF87015FCF74CF99B
:10CA4000FCF71EF805462DB2284640F6D86188420C
:10CA50001EDA2046DFF8F01603F008F918D202E0DB
:10CA6000142003F01CF8052000F0C8F8032805D0B6
:10CA70000228F5D1DFF8BC0600F035F82846FCF7AF
:10CA800007F902460B460120BDE83240FFF730BBF4
:10CA900031BD00005432002078320020F8B5044641
:10CAA0000D460026374602E0032002F0F8FF2A4632
:10CAB0002146384603F04BFBAA2806D12846874278
:10CAC00008D000262F46FFB200E0761C3046C0B2E8
:10CAD0000328E9DBAF4204D1F6B2032E01DA0020CD
:10CAE000F2BDFF20F2BD38B584B00446102269467D
:10CAF000002003F073FBDFF8542669462020FCF782
:10CB0000F0FA06216846FCF7A5FA6D46E988024668
:10CB100092B2914206D100996160A988218060801B
:10CB2000002012E0062102A8FCF794FABDF80E10CE
:10CB3000024692B2914207D1A9686160BDF80C101B
:10CB400021806080002000E0012005B030BD0000A1
:10CB5000480500201C533B7416B582B01046009067
:10CB60006C46BDF80800A08006216846FCF772FA02
:10CB7000E080DFF8D82569462020FCF788FA0821F4
:10CB80006846FFF78BFF04B010BD00001857E63F62
:10CB9000E2274A911CB5DFF89C45207B00281FD175
:10CBA0006846FFF7A0FF01001BD10198217CFF29F7
:10CBB00002D0401C606004E06168884201D2401CE1
:10CBC0006060A08B4FF6FF71884201D12088A0835E
:10CBD000D4E900010A4601460020FFF7BDFF00E04E
:10CBE0000120207416BDDFF84C05007B002801D120
:10CBF00003F02BB900207047DEECEB3F3EB5054655
:10CC0000DFF83045207E00280BD1607C401C60742A
:10CC1000C0B203F0BFF8607C022827D10120207643
:10CC200024E0012822D1FFF7DEFF01280AD10220EB
:10CC3000207600206083012332220C216846FBF716
:10CC400035FF11E0608B401C60830021217680B2AB
:10CC5000854209D2084660830320207601233222D0
:10CC60000C216846FBF722FF00206074207E3EBD49
:10CC700010B4002101E0491CC9B2072911DADFF81C
:10CC8000B82402EB0112B2F90C300446A342F2DAE6
:10CC90000346B2F90E40A342EDDAB2F90A0010BC25
:10CCA00070474FF0FF30FAE7DFF8A424322808DBA2
:10CCB00010780346022B01DC401C107000205070DD
:10CCC00007E00020107050780346022B01DC401C66
:10CCD000507010780346022B02DD0123937004E0AC
:10CCE0005378022B01DD02239370002903D1002821
:10CCF00001D00120907090787047000054320020DD
:10CD00002DE9FF470C216846FFF75AF89DF80040CF
:10CD100010216846FFF754F8BDF900901FFA89F911
:10CD20000D216846FFF74CF8DDF80080002517E07C
:10CD3000DFF80074B8F1000F05D1F87A012802D1AC
:10CD40005020FFF75BFF387E022805D13846FFF7F9
:10CD5000CAFE01E0FFF71EFD3046FBF75FFF6D1CCA
:10CD60000A2D80F21E810FF23440465D314668463E
:10CD7000FBF73FFF9DF801000028F0D030460C285B
:10CD8000EAD8DFE800F06568D22E6107070A0709D4
:10CD9000070D0800E0E7CBE7DCE7FFF751FDDBE735
:10CDA000DFF89003C07A0128D6D1FEF7CBFF074603
:10CDB00001F059FE01467D48FBF78EFFFBF760FE50
:10CDC00000B2014640F6D9629142C5DAB7F5487F14
:10CDD000C2DAFBF75DFF02460B460120FFF788F938
:10CDE000BAE7FBF72CFDFFF729FB2046FFF7E8FB2E
:10CDF0002046FFF714FBCF4F387E022815D120467E
:10CE0000012812D1788C401C788480B23C2803DB46
:10CE10000120B87400207884B87C002805D0FFF782
:10CE2000B9FE002801D10020B874B8F1000F93D0EA
:10CE3000388C401C388480B203288DDB0020388475
:10CE40000220FFF7DAFA87E72046FFF745FD83E780
:10CE5000FDF75BFB80E720007FF47EAFB54FB9F1B3
:10CE6000000F0AD101F0F6FA00280DD101F0EDFA19
:10CE7000F97AFFF719FFF87206E007F12402494634
:10CE800009B20020FFF712FCF87A397D814202D006
:10CE900038750121F974022820D1F87C00283FF46C
:10CEA0005BAF0020F87401F0C3FA4FF6FF7A5346E7
:10CEB000672201216846FBF7F9FDA7F81CA0A7F837
:10CEC00000A000207860032038760022A14B0D20BE
:10CED000FFF70EF90220FFF790FA3DE701287FF4F3
:10CEE0003BAFF87C00283FF437AF0020F8744FF6D2
:10CEF000FF7A5346CB2201216846FBF7D7FD534604
:10CF000040F283120B216846FBF7D0FD00203876F3
:10CF1000534632220C216846FBF7C8FDFFF77CFB25
:10CF200000B2FFF7A5FEB88316E720007FF414AF28
:10CF3000FBF721FC0746FCF703F902460B460020ED
:10CF4000FFF7D6F80B216846FEF73AFF00984FF03E
:10CF50007E5102F08BFEBFF4FFAE42F211708742A9
:10CF6000FFF6FAAE01F071FA82463846FBF7E0FAB6
:10CF70000146FBF7B1FE7849FBF7E8FA0746504651
:10CF8000FBF798FE01463846FBF7E0FA0749FBF746
:10CF9000DDFAFBF759FB02460B460B20FFF7A8F81A
:10CFA000DAE6BDE8FF8700009C0500200000204174
:10CFB00000007F4300007A443EB50546080001D0DA
:10CFC0006648417008216846FBF713FE9DF8010092
:10CFD000002867D0002000E0401C0146C9B211299A
:10CFE00003D2012484402C40F6D05C4D2878401EAA
:10CFF0008041C00F28702878002839D00020FDF724
:10D0000056F82046012824D0042817D0082802D03A
:10D01000102825D02FE000200290022001900090DF
:10D0200010231A4600210820FBF749FA5FF000039D
:10D030004EA219461820FBF726FA1CE05FF0000309
:10D040004DA219460420FBF71EFA022001F0ADFAAA
:10D0500011E000234BA219461020FBF714FA0AE056
:10D060005FF000034AA219461020FBF70CFA02E019
:10D070000020FDF71CF8687800280ED000206870AA
:10D080002870FDF714F844F000442046FCF758F8E7
:10D0900002460B460D20FFF72BF80820BDE83E4066
:10D0A000FBF7BCBD37BD0000000010417CB50C2172
:10D0B0006846FEF785FE9DF800500D216846FEF794
:10D0C0007FFE009C01F0A1F80646254801782A461B
:10D0D000914203D005702846FFF7C6F8FFF710FE0F
:10D0E000002C1AD10C216846FEF76AFE9DF800005C
:10D0F000002803D002280BD005D373BD3046BDE80D
:10D100007640FEF799BB3046BDE87640FEF7B4B8EE
:10D110003046BDE87640FDF7D1BA31462046BDE83D
:10D120007C4049E70000B442000008400000304065
:10D130008481224274050020284D0108C00500208A
:10D140000000E0410000204000004844BC500108BD
:10D15000F8320020000010400024744908330020F9
:10D1600051070020554E4B3F000000005741524EE2
:10D17000494E4721000000004E6F20686F74706CAC
:10D18000617465004C6F7720566F6C74000000006E
:10D1900054696D65204F75740000000000030401A0
:10D1A00002090A070B0C0000002003E0491C642957
:10D1B000FCDB401CB0F57A7F01DA0021F7E770470D
:10D1C00080B54FF41852DFF8C81CDFF8C80CFBF725
:10D1D000FDFE00221021DFF84C0DBDE80840FAF7F3
:10D1E00085BF10B4002208E0835C1C46613C1A2C09
:10D1F00001D2203B8354521C92B20B469A42F3DB7D
:10D2000010BC70472DE9FF4104460D46DFF8846CE1
:10D2100006F580674FF0000802E0203708F10108AA
:10D22000404680B2102824DA0B22394601A8FBF7C9
:10D23000BDFE0B2101A8FFF7D4FF0B22214601A858
:10D2400004F0C8F80028E8D1022207F11C012846A2
:10D25000FBF7ACFE022207F11A016846FBF7A6FEB7
:10D26000BDF8000006EB402000F5007004B0BDE8FA
:10D27000F0810020FAE70146202903D00D2901D0D2
:10D280000A2801D1012070470020704730380A2851
:10D290008041C00F7047F8B5044600E0641C207858
:10D2A000FFF7E9FF0028F9D114F8015B2E462D2D78
:10D2B00001D02B2D01D114F8015B002707E007EB0B
:10D2C000870005EB4005303D2F4614F8015B2846EA
:10D2D000FFF7DCFF0028F2D12D2E02D17F42384625
:10D2E000F2BD3846F2BD30B40023154604E011F813
:10D2F000014B00F8014B5B1C1C46A4B2AC42F6D3B8
:10D3000030BC7047F0B403460024174608E01046CE
:10D31000401E2546ADB2A84201D05B1C491C641CCE
:10D3200008781D782646B6B2BE4201D28542EED0BC
:10D33000281AC0B2F0BC7047F0B402460020034681
:10D340001468054608E0012300EB8007304600EB37
:10D3500047003038641C6D1C2E460F46B6B2BE42E4
:10D360000AD22678A6F130070A2FECD31E46012EEA
:10D37000F0D11460F0BC70474FF0FF30FAE72DE9B0
:10D38000F04104460D461646284604F057F8074675
:10D390004FF0000802E0641C08F10108B0450BD210
:10D3A0003A4692B221462846FFF7ACFF0028F2D158
:10D3B000BFB2E019BDE8F0810020FBE770B504467C
:10D3C00004F03CF880B2002820D02044451E00E044
:10D3D0006D1EA54204D32878FFF74DFF0028F7D132
:10D3E00000206870264600E0761C3078002803D0C4
:10D3F000FFF741FF0028F7D1B44207D0AD1BAD1CA9
:10D400002A4692B231462046FFF76DFF204670BD96
:10D4100030B410F8013BA3F141041A2C00D22033A0
:10D4200011F8014BA4F141051A2D00D22034521EEF
:10D430001546ADB2002D01D0A342EAD01B1B92B21B
:10D440001A43104630BC70472DE9F0410746884624
:10D450003D2107F5C87004F00DF8002833D0401CBA
:10D46000FFF719FF0446A4B2002C01D0012C2AD1E9
:10D47000A8F81440002510E0022D0CD106EB860020
:10D480004000A8F8120006E0012DF5D106EB860059
:10D490004000A8F810006D1CADB2022D31DC3D211A
:10D4A00032206843384403F0E5FF00280BD0401CCD
:10D4B000FFF7F1FE0646B6B2002C06D130466438BE
:10D4C00080B2FB2815D300206FE04FF47A71012061
:10D4D000FCF7F3FD0A2190FBF1F08642F3DB40F606
:10D4E000AC510120FCF7E9FD0A2190FBF1F0B042BC
:10D4F000E9DB002DC8D106EB86004000A8F8040047
:10D50000C9E73D2107F1960003F0B4FF0028DAD007
:10D51000401CFFF7C0FE80B2002802D0411F7429D2
:10D52000D1D2A8F80E003D2107F1C80003F0A2FFF8
:10D530000028C8D0401CFFF7AEFE014689B20A2978
:10D54000C1DCA8F80C003D2107F1FA0003F092FFBE
:10D550000028B8D0401CFFF79EFE014689B2012981
:10D56000B1DCA8F81A003D2107F5967003F082FFA0
:10D570000028A8D0401CFFF78EFE014689B206297C
:10D58000A1DAA8F818003D2107F5AF7003F072FF8B
:10D59000002898D0401CFFF77EFE80B2002801D002
:10D5A000012890D1A8F816000120BDE8F0812DE9EE
:10D5B000F843ADF50C7D80460D46002427462246F3
:10D5C0004FF4E1711BA8FAF791FDDFF83C6B4FF4C3
:10D5D000007241463046FBF7E9FC2246242105A8AB
:10D5E000FAF784FD1DE008F101081FFA88F8B8F188
:10D5F000090F16DA06EB8800D0F80092484603F0CF
:10D600001DFF024692B249460EA8FFF701FF00280F
:10D61000E9D10EA91BA8322202FB08F8404403F00E
:10D6200035FFB7F5007F25DAA046224633210EA844
:10D63000FAF75CFD0EA903E008F101081FFA88F86B
:10D64000B8F1320FEDDAB7F5007FEADAF05D01F8F4
:10D6500008007F1C0A2801D00D28EDD1204601F8D2
:10D6600008000EA8FFF7AAFE9DF838000028D8D0C1
:10D67000A046BCE7214601E0491C89B2092906DA27
:10D680001BA832224A43805C0028F5D10124002CDB
:10D690005DD105A91BA8FFF7D7FE002800D1012402
:10D6A000002C54D105A984B068462422FBF78EFCD7
:10D6B0000FBCFEF727FEBDF918000A2190FBF1F21E
:10D6C0000FF678211BA803F016FFBDF924000A21EC
:10D6D00090FBF1F20FF674210DF19E0003F00BFFA9
:10D6E000BDF926000A2190FBF1F20FF6702134A853
:10D6F00003F001FFBDF822200FF670210DF58170B7
:10D7000003F0F9FEBDF820200FF670214DA803F0BC
:10D71000F2FEBDF82E200FF674210DF5B37003F064
:10D72000EAFEBDF82C200FF6702166A803F0E3FE98
:10D73000BDF82A200FF66C210DF5E57003F0DBFE35
:10D74000BDF828200FF66C217FA803F0D4FE00223C
:10D750004FF4C871284603F065FF002C13D0002653
:10D76000DFF8C077092E21DA07EB8600416C2846E6
:10D7700003F08BFF07F1140050F82610284603F041
:10D7800084FF761CEEE700260EE01BA832217143D1
:10D790000144284603F079FFDFF8700950F826109D
:10D7A000284603F072FF761C092EEEDB20460DF5AD
:10D7B0000D7DBDE8F0832DE9F043F5B00020ADF814
:10D7C000000002464FF4C87111A8FAF78FFC02213D
:10D7D00002A8FEF7F5FABDF908000A2190FBF1F264
:10D7E0000FF6581104A803F086FE04A911A803F04F
:10D7F0004CFFDFF83057696903F047FF032102A8A7
:10D80000FEF7DEFABDF908000A2190FBF1F20FF6EF
:10D810003C1104A803F06FFE04A911A803F035FF22
:10D82000A96903F032FF042102A8FEF7C9FABDF985
:10D8300008000A2190FBF1F20FF6201104A803F072
:10D840005AFE04A911A803F020FFE96903F01DFFA7
:10D85000062102A8FEF7B4FABDF908200FF60C1154
:10D8600004A803F048FE04A911A803F00EFF296ADA
:10D8700003F00BFF072102A8FEF7A2FABDF908206A
:10D880000FF6F80104A803F036FE04A911A803F06E
:10D89000FCFE696A03F0F9FE082102A8FEF790FA7F
:10D8A000BDF908200FF6E40104A803F024FE04A942
:10D8B00011A803F0EAFEA96A03F0E7FE092102A815
:10D8C000FEF77EFABDF908200FF6CC0104A803F09C
:10D8D00012FE04A911A803F0D8FEE96A03F0D5FEF0
:10D8E000102102A8FEF76CFABDF908200FF6B4016A
:10D8F00004A803F000FE04A911A803F0C6FE296BDA
:10D9000003F0C3FE0A2102A8FEF75AFABDF9082067
:10D910000FF6A00104A803F0EEFD04A911A803F07E
:10D92000B4FE696B03F0B1FE0FF694076A460DF181
:10D9300002013846FFF766FC0400DFF8586522D084
:10D9400011A803F07BFDBDF8001006EB411101F2B8
:10D950001C410870000A487006F58060201A00F526
:10D9600000700146491200EB9150801201212954A8
:10D9700011A803F063FD024611A92046FBF716FB30
:10D9800000F0D2FA5DE00FF644086A460DF102019C
:10D990004046FFF737FC0146DFF874474FF418594B
:10D9A00000291FD0FE2211A8FBF700FB00224946E8
:10D9B0003046FAF79BFB0C22414606F58860FBF7E0
:10D9C00005FBFE2211A906F52060FBF7FFFA0020F7
:10D9D00086F84B0406F25640046004210171FE21D2
:10D9E000817104E0002249463046FAF77FFB0C22A1
:10D9F000394606F58060FBF7E9FA0FF2FC7706225C
:10DA000039463046FBF7E2FA0622394606F5007041
:10DA1000FBF7DCFA11A803F011FD07463A4611A9FD
:10DA200006F5C060FBF7D2FA002086F80B0406F278
:10DA3000164004600221017187713F0AC77100F02E
:10DA4000A0FAE86B0021C17101724171A86BC1603D
:10DA50004161C1618161084675B0BDE8F0832DE97F
:10DA6000FF470C4600252E4600900A2102A8FEF72B
:10DA7000A7F9BDF90800002815D040F6AC510120E7
:10DA8000FCF71BFB80B20A2190FBF1FA1FFA8AFA1D
:10DA90004FF47A710120FCF710FB80B20A2190FB51
:10DAA000F1F7BFB202E04FF4AF7A6427A84606E070
:10DAB000A9F80600002508F101081FFA88F8B8F156
:10DAC000140F23DA0A216846FFF736FC10F1010F24
:10DAD0001CD082451AD3B84218D304EB8809A9F8A0
:10DAE00004000125761C1E228AA10098FFF747FC3E
:10DAF00000900028DFD00A216846FFF71DFC10F1D6
:10DB0000010F03D048F6A1418842D1D3002D03D0A4
:10DB1000002004EB8801C88026804046401E8041DA
:10DB2000C00F04B0BDE8F0873EB50020ADF804009A
:10DB300000F06EFC0546FAF78AFB01AA0DF106011A
:10DB40000FF29460FFF75EFB002817D04FF40072CD
:10DB50000FF29061FFF713FC009005216846FFF774
:10DB6000EBFB68804FF400720FF284610098FFF7BE
:10DB700006FC00902946FFF772FF04462046C0B21B
:10DB80003EBD2DE9F043E5B00020ADF800000FF2F6
:10DB900030666A460DF102013046FFF733FB0400A0
:10DBA000BC4D29D001A9FFF702FD002800F0A1809B
:10DBB00001A803F043FCBDF8001005EB411101F290
:10DBC0001C410870000A487005F58060201A00F5B5
:10DBD0000070D4490246521200EB9250801201228A
:10DBE0000A5401A803F02AFC024601A92046FBF7CB
:10DBF000DDF900F099F97CE00FF2D0546A460DF19E
:10DC000002012046FFF7FEFA01004FF4185721D019
:10DC1000FE2201A8FBF7CAF9002239462846FAF786
:10DC200065FA0C22214605F58860FBF7CFF9FE2244
:10DC300001A905F52060FBF7C9F9002085F84B0420
:10DC400005F25640DFF8C814016004210171FE217D
:10DC5000817104E0002239462846FAF747FA0C227F
:10DC6000314605F58060FBF7B1F90FF28C540C22B8
:10DC700021462846FBF7AAF90C22214605F500703B
:10DC8000FBF7A4F90024264605F5C06920E0A54865
:10DC900000EB8607D7F84480404603F0CFFB0246EE
:10DCA000414609EB0400FBF781F9404603F0C6FB4F
:10DCB00004197F69384603F0C1FB0246394609EB77
:10DCC0000400FBF773F9384603F0B8FB0419761C1F
:10DCD000092EDCD3002085F80B0405F21640DFF88E
:10DCE00030140160022101718471240AC47100F0B2
:10DCF00048F98C48C16B0022CA710A724A71806B64
:10DD00001146C1604161C1618161084665B0BDE8ED
:10DD1000F08300002C0000002DE9F841E9B0044632
:10DD20000E460025B6F5805F0FD15A4D4FF40072B4
:10DD3000294603F04FFB002800F0A4804FF4007246
:10DD400021462846FBF732F99CE0B6F5205F10D15A
:10DD5000DFF8C0534FF40072294603F03BFB002864
